{
  "contractName": "FingerprintVerifier",
  "abi": [
    {
      "inputs": [
        {
          "internalType": "bytes32",
          "name": "fingerprint",
          "type": "bytes32"
        }
      ],
      "name": "verifyFingerprint",
      "outputs": [
        {
          "internalType": "bool",
          "name": "",
          "type": "bool"
        }
      ],
      "stateMutability": "view",
      "type": "function",
      "constant": true
    },
    {
      "inputs": [
        {
          "internalType": "bytes32",
          "name": "fingerprint",
          "type": "bytes32"
        }
      ],
      "name": "storeFingerprint",
      "outputs": [],
      "stateMutability": "nonpayable",
      "type": "function"
    }
  ],
  "bytecode": "0x608060405234801561000f575f80fd5b506102748061001d5f395ff3fe608060405234801561000f575f80fd5b5060043610610034575f3560e01c8063267552e314610038578063b8f6c0de14610054575b5f80fd5b610052600480360381019061004d9190610168565b610084565b005b61006e60048036038101906100699190610168565b61010c565b60405161007b91906101ad565b60405180910390f35b5f808281526020019081526020015f205f9054906101000a900460ff16156100e1576040517f08c379a00000000000000000000000000000000000000000000000000000000081526004016100d890610220565b60405180910390fd5b60015f808381526020019081526020015f205f6101000a81548160ff02191690831515021790555050565b5f805f8381526020019081526020015f205f9054906101000a900460ff169050919050565b5f80fd5b5f819050919050565b61014781610135565b8114610151575f80fd5b50565b5f813590506101628161013e565b92915050565b5f6020828403121561017d5761017c610131565b5b5f61018a84828501610154565b91505092915050565b5f8115159050919050565b6101a781610193565b82525050565b5f6020820190506101c05f83018461019e565b92915050565b5f82825260208201905092915050565b7f46696e6765727072696e7420616c7265616479206578697374730000000000005f82015250565b5f61020a601a836101c6565b9150610215826101d6565b602082019050919050565b5f6020820190508181035f830152610237816101fe565b905091905056fea26469706673582212207e2199b6971e42b158c7817e1a910c33a1c650e94d20f3cdb6ea0b42db9ca6a564736f6c63430008150033",
  "immutableReferences": {},
  "source": "// SPDX-License-Identifier: MIT\r\npragma solidity ^0.8.21;\r\n\r\ncontract FingerprintVerifier {\r\n    mapping(bytes32 => bool) private fingerprints;\r\n\r\n    function verifyFingerprint(bytes32 fingerprint) public view returns (bool) {\r\n        return fingerprints[fingerprint];\r\n    }\r\n\r\n    function storeFingerprint(bytes32 fingerprint) public {\r\n        require(!fingerprints[fingerprint], \"Fingerprint already exists\");\r\n        fingerprints[fingerprint] = true;\r\n    }\r\n}\r\n",
  "sourcePath": "D:\\Projects\\DeMus\\smart-contracts\\contracts\\FingerprintVerifier.sol",
  "compiler": {
    "name": "solc",
    "version": "0.8.21+commit.d9974bed.Emscripten.clang"
  },
  "schemaVersion": "3.4.16",
  "updatedAt": "2024-07-23T20:30:11.514Z",
  "networkType": "ethereum",
  "devdoc": {
    "kind": "dev",
    "methods": {},
    "version": 1
  },
  "userdoc": {
    "kind": "user",
    "methods": {},
    "version": 1
  }
}