{
  "contractName": "RegisterMusic",
  "abi": [
    {
      "anonymous": false,
      "inputs": [
        {
          "indexed": true,
          "internalType": "address",
          "name": "user",
          "type": "address"
        },
        {
          "indexed": true,
          "internalType": "bytes32",
          "name": "fingerprint",
          "type": "bytes32"
        },
        {
          "indexed": false,
          "internalType": "string",
          "name": "title",
          "type": "string"
        },
        {
          "indexed": false,
          "internalType": "string",
          "name": "artist",
          "type": "string"
        },
        {
          "indexed": false,
          "internalType": "string",
          "name": "ipfsHash",
          "type": "string"
        }
      ],
      "name": "TrackRegistered",
      "type": "event"
    },
    {
      "inputs": [
        {
          "internalType": "uint256",
          "name": "",
          "type": "uint256"
        }
      ],
      "name": "allFingerprints",
      "outputs": [
        {
          "internalType": "bytes32",
          "name": "",
          "type": "bytes32"
        }
      ],
      "stateMutability": "view",
      "type": "function",
      "constant": true
    },
    {
      "inputs": [
        {
          "internalType": "bytes32",
          "name": "",
          "type": "bytes32"
        }
      ],
      "name": "tracks",
      "outputs": [
        {
          "internalType": "string",
          "name": "title",
          "type": "string"
        },
        {
          "internalType": "string",
          "name": "artist",
          "type": "string"
        },
        {
          "internalType": "string",
          "name": "ipfsHash",
          "type": "string"
        },
        {
          "internalType": "bytes32",
          "name": "fingerprint",
          "type": "bytes32"
        },
        {
          "internalType": "address",
          "name": "account",
          "type": "address"
        }
      ],
      "stateMutability": "view",
      "type": "function",
      "constant": true
    },
    {
      "inputs": [
        {
          "internalType": "address",
          "name": "",
          "type": "address"
        },
        {
          "internalType": "uint256",
          "name": "",
          "type": "uint256"
        }
      ],
      "name": "userTracks",
      "outputs": [
        {
          "internalType": "bytes32",
          "name": "",
          "type": "bytes32"
        }
      ],
      "stateMutability": "view",
      "type": "function",
      "constant": true
    },
    {
      "inputs": [
        {
          "internalType": "string",
          "name": "title",
          "type": "string"
        },
        {
          "internalType": "string",
          "name": "artist",
          "type": "string"
        },
        {
          "internalType": "string",
          "name": "ipfsHash",
          "type": "string"
        },
        {
          "internalType": "bytes32",
          "name": "fingerprint",
          "type": "bytes32"
        }
      ],
      "name": "registerTrack",
      "outputs": [],
      "stateMutability": "nonpayable",
      "type": "function"
    },
    {
      "inputs": [
        {
          "internalType": "address",
          "name": "user",
          "type": "address"
        }
      ],
      "name": "getUserTracks",
      "outputs": [
        {
          "internalType": "bytes32[]",
          "name": "",
          "type": "bytes32[]"
        }
      ],
      "stateMutability": "view",
      "type": "function",
      "constant": true
    },
    {
      "inputs": [
        {
          "internalType": "bytes32",
          "name": "fingerprint",
          "type": "bytes32"
        }
      ],
      "name": "getTrack",
      "outputs": [
        {
          "internalType": "string",
          "name": "title",
          "type": "string"
        },
        {
          "internalType": "string",
          "name": "artist",
          "type": "string"
        },
        {
          "internalType": "string",
          "name": "ipfsHash",
          "type": "string"
        },
        {
          "internalType": "address",
          "name": "account",
          "type": "address"
        }
      ],
      "stateMutability": "view",
      "type": "function",
      "constant": true
    },
    {
      "inputs": [],
      "name": "getAllTracks",
      "outputs": [
        {
          "components": [
            {
              "internalType": "string",
              "name": "title",
              "type": "string"
            },
            {
              "internalType": "string",
              "name": "artist",
              "type": "string"
            },
            {
              "internalType": "string",
              "name": "ipfsHash",
              "type": "string"
            },
            {
              "internalType": "bytes32",
              "name": "fingerprint",
              "type": "bytes32"
            },
            {
              "internalType": "address",
              "name": "account",
              "type": "address"
            }
          ],
          "internalType": "struct RegisterMusic.MusicTrack[]",
          "name": "",
          "type": "tuple[]"
        }
      ],
      "stateMutability": "view",
      "type": "function",
      "constant": true
    },
    {
      "inputs": [
        {
          "internalType": "string",
          "name": "query",
          "type": "string"
        }
      ],
      "name": "searchTracks",
      "outputs": [
        {
          "components": [
            {
              "internalType": "string",
              "name": "title",
              "type": "string"
            },
            {
              "internalType": "string",
              "name": "artist",
              "type": "string"
            },
            {
              "internalType": "string",
              "name": "ipfsHash",
              "type": "string"
            },
            {
              "internalType": "bytes32",
              "name": "fingerprint",
              "type": "bytes32"
            },
            {
              "internalType": "address",
              "name": "account",
              "type": "address"
            }
          ],
          "internalType": "struct RegisterMusic.MusicTrack[]",
          "name": "",
          "type": "tuple[]"
        }
      ],
      "stateMutability": "view",
      "type": "function",
      "constant": true
    }
  ],
  "bytecode": "0x608060405234801561000f575f80fd5b50611dc58061001d5f395ff3fe608060405234801561000f575f80fd5b5060043610610086575f3560e01c806382368a6b1161005957806382368a6b1461013a5780639b6fa0591461016d578063c0678a661461019d578063d1e81a1e146101bb57610086565b8063081090091461008a5780631078a57f146100be57806335a8ef2f146100ee5780636d8ca3f91461011e575b5f80fd5b6100a4600480360381019061009f919061118d565b6101eb565b6040516100b5959493929190611290565b60405180910390f35b6100d860048036038101906100d39190611353565b6103cd565b6040516100e59190611391565b60405180910390f35b610108600480360381019061010391906113aa565b6103f8565b604051610115919061148c565b60405180910390f35b610138600480360381019061013391906115d8565b61048b565b005b610154600480360381019061014f919061118d565b6106a7565b6040516101649493929190611690565b60405180910390f35b610187600480360381019061018291906116e8565b6108fc565b6040516101949190611391565b60405180910390f35b6101a561091c565b6040516101b291906118a6565b60405180910390f35b6101d560048036038101906101d091906118c6565b610c07565b6040516101e291906118a6565b60405180910390f35b5f602052805f5260405f205f91509050805f0180546102099061193a565b80601f01602080910402602001604051908101604052809291908181526020018280546102359061193a565b80156102805780601f1061025757610100808354040283529160200191610280565b820191905f5260205f20905b81548152906001019060200180831161026357829003601f168201915b5050505050908060010180546102959061193a565b80601f01602080910402602001604051908101604052809291908181526020018280546102c19061193a565b801561030c5780601f106102e35761010080835404028352916020019161030c565b820191905f5260205f20905b8154815290600101906020018083116102ef57829003601f168201915b5050505050908060020180546103219061193a565b80601f016020809104026020016040519081016040528092919081815260200182805461034d9061193a565b80156103985780601f1061036f57610100808354040283529160200191610398565b820191905f5260205f20905b81548152906001019060200180831161037b57829003601f168201915b505050505090806003015490806004015f9054906101000a900473ffffffffffffffffffffffffffffffffffffffff16905085565b6001602052815f5260405f2081815481106103e6575f80fd5b905f5260205f20015f91509150505481565b606060015f8373ffffffffffffffffffffffffffffffffffffffff1673ffffffffffffffffffffffffffffffffffffffff1681526020019081526020015f2080548060200260200160405190810160405280929190818152602001828054801561047f57602002820191905f5260205f20905b81548152602001906001019080831161046b575b50505050509050919050565b5f801b5f808381526020019081526020015f2060030154146104e2576040517f08c379a00000000000000000000000000000000000000000000000000000000081526004016104d9906119b4565b60405180910390fd5b5f6040518060a001604052808681526020018581526020018481526020018381526020013373ffffffffffffffffffffffffffffffffffffffff168152509050805f808481526020019081526020015f205f820151815f0190816105469190611b6f565b50602082015181600101908161055c9190611b6f565b5060408201518160020190816105729190611b6f565b50606082015181600301556080820151816004015f6101000a81548173ffffffffffffffffffffffffffffffffffffffff021916908373ffffffffffffffffffffffffffffffffffffffff16021790555090505060015f3373ffffffffffffffffffffffffffffffffffffffff1673ffffffffffffffffffffffffffffffffffffffff1681526020019081526020015f2082908060018154018082558091505060019003905f5260205f20015f9091909190915055600282908060018154018082558091505060019003905f5260205f20015f9091909190915055813373ffffffffffffffffffffffffffffffffffffffff167f43f3730f8a755f7fd41f06c0cc2503ce45e738dd17156eb88a468c6fc92ab6f187878760405161069893929190611c3e565b60405180910390a35050505050565b60608060605f805f808781526020019081526020015f206040518060a00160405290815f820180546106d89061193a565b80601f01602080910402602001604051908101604052809291908181526020018280546107049061193a565b801561074f5780601f106107265761010080835404028352916020019161074f565b820191905f5260205f20905b81548152906001019060200180831161073257829003601f168201915b505050505081526020016001820180546107689061193a565b80601f01602080910402602001604051908101604052809291908181526020018280546107949061193a565b80156107df5780601f106107b6576101008083540402835291602001916107df565b820191905f5260205f20905b8154815290600101906020018083116107c257829003601f168201915b505050505081526020016002820180546107f89061193a565b80601f01602080910402602001604051908101604052809291908181526020018280546108249061193a565b801561086f5780601f106108465761010080835404028352916020019161086f565b820191905f5260205f20905b81548152906001019060200180831161085257829003601f168201915b5050505050815260200160038201548152602001600482015f9054906101000a900473ffffffffffffffffffffffffffffffffffffffff1673ffffffffffffffffffffffffffffffffffffffff1673ffffffffffffffffffffffffffffffffffffffff16815250509050805f01518160200151826040015183608001519450945094509450509193509193565b6002818154811061090b575f80fd5b905f5260205f20015f915090505481565b60605f60028054905067ffffffffffffffff81111561093e5761093d6114b4565b5b60405190808252806020026020018201604052801561097757816020015b610964611103565b81526020019060019003908161095c5790505b5090505f5b600280549050811015610bff575f806002838154811061099f5761099e611c88565b5b905f5260205f20015481526020019081526020015f206040518060a00160405290815f820180546109cf9061193a565b80601f01602080910402602001604051908101604052809291908181526020018280546109fb9061193a565b8015610a465780601f10610a1d57610100808354040283529160200191610a46565b820191905f5260205f20905b815481529060010190602001808311610a2957829003601f168201915b50505050508152602001600182018054610a5f9061193a565b80601f0160208091040260200160405190810160405280929190818152602001828054610a8b9061193a565b8015610ad65780601f10610aad57610100808354040283529160200191610ad6565b820191905f5260205f20905b815481529060010190602001808311610ab957829003601f168201915b50505050508152602001600282018054610aef9061193a565b80601f0160208091040260200160405190810160405280929190818152602001828054610b1b9061193a565b8015610b665780601f10610b3d57610100808354040283529160200191610b66565b820191905f5260205f20905b815481529060010190602001808311610b4957829003601f168201915b5050505050815260200160038201548152602001600482015f9054906101000a900473ffffffffffffffffffffffffffffffffffffffff1673ffffffffffffffffffffffffffffffffffffffff1673ffffffffffffffffffffffffffffffffffffffff1681525050828281518110610be157610be0611c88565b5b60200260200101819052508080610bf790611ce2565b91505061097c565b508091505090565b60605f60028054905067ffffffffffffffff811115610c2957610c286114b4565b5b604051908082528060200260200182016040528015610c6257816020015b610c4f611103565b815260200190600190039081610c475790505b5090505f805b600280549050811015610f26575f805f60028481548110610c8c57610c8b611c88565b5b905f5260205f20015481526020019081526020015f206040518060a00160405290815f82018054610cbc9061193a565b80601f0160208091040260200160405190810160405280929190818152602001828054610ce89061193a565b8015610d335780601f10610d0a57610100808354040283529160200191610d33565b820191905f5260205f20905b815481529060010190602001808311610d1657829003601f168201915b50505050508152602001600182018054610d4c9061193a565b80601f0160208091040260200160405190810160405280929190818152602001828054610d789061193a565b8015610dc35780601f10610d9a57610100808354040283529160200191610dc3565b820191905f5260205f20905b815481529060010190602001808311610da657829003601f168201915b50505050508152602001600282018054610ddc9061193a565b80601f0160208091040260200160405190810160405280929190818152602001828054610e089061193a565b8015610e535780601f10610e2a57610100808354040283529160200191610e53565b820191905f5260205f20905b815481529060010190602001808311610e3657829003601f168201915b5050505050815260200160038201548152602001600482015f9054906101000a900473ffffffffffffffffffffffffffffffffffffffff1673ffffffffffffffffffffffffffffffffffffffff1673ffffffffffffffffffffffffffffffffffffffff16815250509050610eca815f015187610fe0565b80610edf5750610ede816020015187610fe0565b5b15610f125780848481518110610ef857610ef7611c88565b5b60200260200101819052508280610f0e90611ce2565b9350505b508080610f1e90611ce2565b915050610c68565b505f8167ffffffffffffffff811115610f4257610f416114b4565b5b604051908082528060200260200182016040528015610f7b57816020015b610f68611103565b815260200190600190039081610f605790505b5090505f5b82811015610fd457838181518110610f9b57610f9a611c88565b5b6020026020010151828281518110610fb657610fb5611c88565b5b60200260200101819052508080610fcc90611ce2565b915050610f80565b50809350505050919050565b5f808390505f839050815181511115610ffd575f925050506110fd565b5f805b8251845161100e9190611d29565b81116110f557600191505f5b83518110156110ce5783818151811061103657611035611c88565b5b602001015160f81c60f81b7effffffffffffffffffffffffffffffffffffffffffffffffffffffffffffff19168582846110709190611d5c565b8151811061108157611080611c88565b5b602001015160f81c60f81b7effffffffffffffffffffffffffffffffffffffffffffffffffffffffffffff1916146110bb575f92506110ce565b80806110c690611ce2565b91505061101a565b5081156110e25760019450505050506110fd565b80806110ed90611ce2565b915050611000565b505f93505050505b92915050565b6040518060a001604052806060815260200160608152602001606081526020015f80191681526020015f73ffffffffffffffffffffffffffffffffffffffff1681525090565b5f604051905090565b5f80fd5b5f80fd5b5f819050919050565b61116c8161115a565b8114611176575f80fd5b50565b5f8135905061118781611163565b92915050565b5f602082840312156111a2576111a1611152565b5b5f6111af84828501611179565b91505092915050565b5f81519050919050565b5f82825260208201905092915050565b5f5b838110156111ef5780820151818401526020810190506111d4565b5f8484015250505050565b5f601f19601f8301169050919050565b5f611214826111b8565b61121e81856111c2565b935061122e8185602086016111d2565b611237816111fa565b840191505092915050565b61124b8161115a565b82525050565b5f73ffffffffffffffffffffffffffffffffffffffff82169050919050565b5f61127a82611251565b9050919050565b61128a81611270565b82525050565b5f60a0820190508181035f8301526112a8818861120a565b905081810360208301526112bc818761120a565b905081810360408301526112d0818661120a565b90506112df6060830185611242565b6112ec6080830184611281565b9695505050505050565b6112ff81611270565b8114611309575f80fd5b50565b5f8135905061131a816112f6565b92915050565b5f819050919050565b61133281611320565b811461133c575f80fd5b50565b5f8135905061134d81611329565b92915050565b5f806040838503121561136957611368611152565b5b5f6113768582860161130c565b92505060206113878582860161133f565b9150509250929050565b5f6020820190506113a45f830184611242565b92915050565b5f602082840312156113bf576113be611152565b5b5f6113cc8482850161130c565b91505092915050565b5f81519050919050565b5f82825260208201905092915050565b5f819050602082019050919050565b6114078161115a565b82525050565b5f61141883836113fe565b60208301905092915050565b5f602082019050919050565b5f61143a826113d5565b61144481856113df565b935061144f836113ef565b805f5b8381101561147f578151611466888261140d565b975061147183611424565b925050600181019050611452565b5085935050505092915050565b5f6020820190508181035f8301526114a48184611430565b905092915050565b5f80fd5b5f80fd5b7f4e487b71000000000000000000000000000000000000000000000000000000005f52604160045260245ffd5b6114ea826111fa565b810181811067ffffffffffffffff82111715611509576115086114b4565b5b80604052505050565b5f61151b611149565b905061152782826114e1565b919050565b5f67ffffffffffffffff821115611546576115456114b4565b5b61154f826111fa565b9050602081019050919050565b828183375f83830152505050565b5f61157c6115778461152c565b611512565b905082815260208101848484011115611598576115976114b0565b5b6115a384828561155c565b509392505050565b5f82601f8301126115bf576115be6114ac565b5b81356115cf84826020860161156a565b91505092915050565b5f805f80608085870312156115f0576115ef611152565b5b5f85013567ffffffffffffffff81111561160d5761160c611156565b5b611619878288016115ab565b945050602085013567ffffffffffffffff81111561163a57611639611156565b5b611646878288016115ab565b935050604085013567ffffffffffffffff81111561166757611666611156565b5b611673878288016115ab565b925050606061168487828801611179565b91505092959194509250565b5f6080820190508181035f8301526116a8818761120a565b905081810360208301526116bc818661120a565b905081810360408301526116d0818561120a565b90506116df6060830184611281565b95945050505050565b5f602082840312156116fd576116fc611152565b5b5f61170a8482850161133f565b91505092915050565b5f81519050919050565b5f82825260208201905092915050565b5f819050602082019050919050565b5f82825260208201905092915050565b5f611756826111b8565b611760818561173c565b93506117708185602086016111d2565b611779816111fa565b840191505092915050565b61178d81611270565b82525050565b5f60a083015f8301518482035f8601526117ad828261174c565b915050602083015184820360208601526117c7828261174c565b915050604083015184820360408601526117e1828261174c565b91505060608301516117f660608601826113fe565b5060808301516118096080860182611784565b508091505092915050565b5f61181f8383611793565b905092915050565b5f602082019050919050565b5f61183d82611713565b611847818561171d565b9350836020820285016118598561172d565b805f5b8581101561189457848403895281516118758582611814565b945061188083611827565b925060208a0199505060018101905061185c565b50829750879550505050505092915050565b5f6020820190508181035f8301526118be8184611833565b905092915050565b5f602082840312156118db576118da611152565b5b5f82013567ffffffffffffffff8111156118f8576118f7611156565b5b611904848285016115ab565b91505092915050565b7f4e487b71000000000000000000000000000000000000000000000000000000005f52602260045260245ffd5b5f600282049050600182168061195157607f821691505b6020821081036119645761196361190d565b5b50919050565b7f547261636b20616c7265616479207265676973746572656400000000000000005f82015250565b5f61199e6018836111c2565b91506119a98261196a565b602082019050919050565b5f6020820190508181035f8301526119cb81611992565b9050919050565b5f819050815f5260205f209050919050565b5f6020601f8301049050919050565b5f82821b905092915050565b5f60088302611a2e7fffffffffffffffffffffffffffffffffffffffffffffffffffffffffffffffff826119f3565b611a3886836119f3565b95508019841693508086168417925050509392505050565b5f819050919050565b5f611a73611a6e611a6984611320565b611a50565b611320565b9050919050565b5f819050919050565b611a8c83611a59565b611aa0611a9882611a7a565b8484546119ff565b825550505050565b5f90565b611ab4611aa8565b611abf818484611a83565b505050565b5b81811015611ae257611ad75f82611aac565b600181019050611ac5565b5050565b601f821115611b2757611af8816119d2565b611b01846119e4565b81016020851015611b10578190505b611b24611b1c856119e4565b830182611ac4565b50505b505050565b5f82821c905092915050565b5f611b475f1984600802611b2c565b1980831691505092915050565b5f611b5f8383611b38565b9150826002028217905092915050565b611b78826111b8565b67ffffffffffffffff811115611b9157611b906114b4565b5b611b9b825461193a565b611ba6828285611ae6565b5f60209050601f831160018114611bd7575f8415611bc5578287015190505b611bcf8582611b54565b865550611c36565b601f198416611be5866119d2565b5f5b82811015611c0c57848901518255600182019150602085019450602081019050611be7565b86831015611c295784890151611c25601f891682611b38565b8355505b6001600288020188555050505b505050505050565b5f6060820190508181035f830152611c56818661120a565b90508181036020830152611c6a818561120a565b90508181036040830152611c7e818461120a565b9050949350505050565b7f4e487b71000000000000000000000000000000000000000000000000000000005f52603260045260245ffd5b7f4e487b71000000000000000000000000000000000000000000000000000000005f52601160045260245ffd5b5f611cec82611320565b91507fffffffffffffffffffffffffffffffffffffffffffffffffffffffffffffffff8203611d1e57611d1d611cb5565b5b600182019050919050565b5f611d3382611320565b9150611d3e83611320565b9250828203905081811115611d5657611d55611cb5565b5b92915050565b5f611d6682611320565b9150611d7183611320565b9250828201905080821115611d8957611d88611cb5565b5b9291505056fea26469706673582212206fb442d4122a06213d91bba5e5b4b399c100605b2bb06c7d94c8b3c67681c62a64736f6c63430008150033",
  "immutableReferences": {},
  "source": "// SPDX-License-Identifier: MIT\r\npragma solidity ^0.8.21;\r\n\r\ncontract RegisterMusic {\r\n    struct MusicTrack {\r\n        string title;\r\n        string artist;\r\n        string ipfsHash;\r\n        bytes32 fingerprint;\r\n        address account;\r\n    }\r\n\r\n    mapping(bytes32 => MusicTrack) public tracks;\r\n    mapping(address => bytes32[]) public userTracks;\r\n    bytes32[] public allFingerprints;\r\n\r\n    event TrackRegistered(address indexed user, bytes32 indexed fingerprint, string title, string artist, string ipfsHash);\r\n\r\n    function registerTrack(string memory title, string memory artist, string memory ipfsHash, bytes32 fingerprint) public {\r\n        require(tracks[fingerprint].fingerprint == 0, \"Track already registered\");\r\n\r\n        MusicTrack memory newTrack = MusicTrack({\r\n            title: title,\r\n            artist: artist,\r\n            ipfsHash: ipfsHash,\r\n            fingerprint: fingerprint,\r\n            account: msg.sender\r\n        });\r\n\r\n        tracks[fingerprint] = newTrack;\r\n        userTracks[msg.sender].push(fingerprint);\r\n        allFingerprints.push(fingerprint);\r\n\r\n        emit TrackRegistered(msg.sender, fingerprint, title, artist, ipfsHash);\r\n    }\r\n\r\n    function getUserTracks(address user) public view returns (bytes32[] memory) {\r\n        return userTracks[user];\r\n    }\r\n\r\n    function getTrack(bytes32 fingerprint) public view returns (string memory title, string memory artist, string memory ipfsHash, address account) {\r\n        MusicTrack memory track = tracks[fingerprint];\r\n        return (track.title, track.artist, track.ipfsHash, track.account);\r\n    }\r\n\r\n    function getAllTracks() public view returns (MusicTrack[] memory) {\r\n        MusicTrack[] memory result = new MusicTrack[](allFingerprints.length);\r\n        for (uint i = 0; i < allFingerprints.length; i++) {\r\n            result[i] = tracks[allFingerprints[i]];\r\n        }\r\n        return result;\r\n    }\r\n\r\n    function searchTracks(string memory query) public view returns (MusicTrack[] memory) {\r\n        MusicTrack[] memory result = new MusicTrack[](allFingerprints.length);\r\n        uint count = 0;\r\n        for (uint i = 0; i < allFingerprints.length; i++) {\r\n            MusicTrack memory track = tracks[allFingerprints[i]];\r\n            if (contains(track.title, query) || contains(track.artist, query)) {\r\n                result[count] = track;\r\n                count++;\r\n            }\r\n        }\r\n        MusicTrack[] memory filteredResult = new MusicTrack[](count);\r\n        for (uint j = 0; j < count; j++) {\r\n            filteredResult[j] = result[j];\r\n        }\r\n        return filteredResult;\r\n    }\r\n\r\n    function contains(string memory where, string memory what) internal pure returns (bool) {\r\n        bytes memory whereBytes = bytes(where);\r\n        bytes memory whatBytes = bytes(what);\r\n\r\n        if (whatBytes.length > whereBytes.length) {\r\n            return false;\r\n        }\r\n\r\n        bool found = false;\r\n        for (uint i = 0; i <= whereBytes.length - whatBytes.length; i++) {\r\n            found = true;\r\n            for (uint j = 0; j < whatBytes.length; j++) {\r\n                if (whereBytes[i + j] != whatBytes[j]) {\r\n                    found = false;\r\n                    break;\r\n                }\r\n            }\r\n            if (found) {\r\n                return true;\r\n            }\r\n        }\r\n        return false;\r\n    }\r\n}\r\n",
  "sourcePath": "D:\\Projects\\DeMus\\smart-contracts\\contracts\\RegisterMusic.sol",
  "compiler": {
    "name": "solc",
    "version": "0.8.21+commit.d9974bed.Emscripten.clang"
  },
  "schemaVersion": "3.4.16",
  "updatedAt": "2024-07-23T20:30:11.523Z",
  "networkType": "ethereum",
  "devdoc": {
    "kind": "dev",
    "methods": {},
    "version": 1
  },
  "userdoc": {
    "kind": "user",
    "methods": {},
    "version": 1
  }
}